{
  "contractName": "LandRegistry",
  "abi": [
    {
      "inputs": [],
      "stateMutability": "nonpayable",
      "type": "constructor"
    },
    {
      "anonymous": false,
      "inputs": [
        {
          "indexed": false,
          "internalType": "uint256",
          "name": "id",
          "type": "uint256"
        },
        {
          "indexed": false,
          "internalType": "address",
          "name": "owner",
          "type": "address"
        }
      ],
      "name": "LandForSale",
      "type": "event"
    },
    {
      "anonymous": false,
      "inputs": [
        {
          "indexed": false,
          "internalType": "uint256",
          "name": "id",
          "type": "uint256"
        },
        {
          "indexed": false,
          "internalType": "address",
          "name": "owner",
          "type": "address"
        },
        {
          "indexed": false,
          "internalType": "string",
          "name": "plotNumber",
          "type": "string"
        },
        {
          "indexed": false,
          "internalType": "string",
          "name": "area",
          "type": "string"
        },
        {
          "indexed": false,
          "internalType": "string",
          "name": "district",
          "type": "string"
        },
        {
          "indexed": false,
          "internalType": "string",
          "name": "city",
          "type": "string"
        },
        {
          "indexed": false,
          "internalType": "string",
          "name": "state",
          "type": "string"
        },
        {
          "indexed": false,
          "internalType": "uint256",
          "name": "areaSqYd",
          "type": "uint256"
        }
      ],
      "name": "LandRegistered",
      "type": "event"
    },
    {
      "anonymous": false,
      "inputs": [
        {
          "indexed": false,
          "internalType": "uint256",
          "name": "id",
          "type": "uint256"
        },
        {
          "indexed": false,
          "internalType": "address",
          "name": "from",
          "type": "address"
        },
        {
          "indexed": false,
          "internalType": "address",
          "name": "to",
          "type": "address"
        }
      ],
      "name": "LandTransferred",
      "type": "event"
    },
    {
      "anonymous": false,
      "inputs": [
        {
          "indexed": false,
          "internalType": "uint256",
          "name": "id",
          "type": "uint256"
        },
        {
          "indexed": false,
          "internalType": "address",
          "name": "newOwner",
          "type": "address"
        }
      ],
      "name": "TransferApproved",
      "type": "event"
    },
    {
      "anonymous": false,
      "inputs": [
        {
          "indexed": false,
          "internalType": "uint256",
          "name": "id",
          "type": "uint256"
        },
        {
          "indexed": false,
          "internalType": "address",
          "name": "requester",
          "type": "address"
        }
      ],
      "name": "TransferDenied",
      "type": "event"
    },
    {
      "anonymous": false,
      "inputs": [
        {
          "indexed": false,
          "internalType": "uint256",
          "name": "id",
          "type": "uint256"
        },
        {
          "indexed": false,
          "internalType": "address",
          "name": "requester",
          "type": "address"
        }
      ],
      "name": "TransferRequested",
      "type": "event"
    },
    {
      "inputs": [],
      "name": "ADMIN_ADDRESS",
      "outputs": [
        {
          "internalType": "address",
          "name": "",
          "type": "address"
        }
      ],
      "stateMutability": "view",
      "type": "function",
      "constant": true
    },
    {
      "inputs": [],
      "name": "admin",
      "outputs": [
        {
          "internalType": "address",
          "name": "",
          "type": "address"
        }
      ],
      "stateMutability": "view",
      "type": "function",
      "constant": true
    },
    {
      "inputs": [],
      "name": "landCount",
      "outputs": [
        {
          "internalType": "uint256",
          "name": "",
          "type": "uint256"
        }
      ],
      "stateMutability": "view",
      "type": "function",
      "constant": true
    },
    {
      "inputs": [
        {
          "internalType": "uint256",
          "name": "",
          "type": "uint256"
        },
        {
          "internalType": "uint256",
          "name": "",
          "type": "uint256"
        }
      ],
      "name": "landOwnershipHistory",
      "outputs": [
        {
          "internalType": "address",
          "name": "owner",
          "type": "address"
        },
        {
          "internalType": "uint256",
          "name": "timestamp",
          "type": "uint256"
        }
      ],
      "stateMutability": "view",
      "type": "function",
      "constant": true
    },
    {
      "inputs": [
        {
          "internalType": "uint256",
          "name": "",
          "type": "uint256"
        }
      ],
      "name": "lands",
      "outputs": [
        {
          "internalType": "uint256",
          "name": "id",
          "type": "uint256"
        },
        {
          "internalType": "string",
          "name": "plotNumber",
          "type": "string"
        },
        {
          "internalType": "string",
          "name": "area",
          "type": "string"
        },
        {
          "internalType": "string",
          "name": "district",
          "type": "string"
        },
        {
          "internalType": "string",
          "name": "city",
          "type": "string"
        },
        {
          "internalType": "string",
          "name": "state",
          "type": "string"
        },
        {
          "internalType": "uint256",
          "name": "areaSqYd",
          "type": "uint256"
        },
        {
          "internalType": "address",
          "name": "owner",
          "type": "address"
        },
        {
          "internalType": "bool",
          "name": "isForSale",
          "type": "bool"
        },
        {
          "internalType": "address",
          "name": "transferRequest",
          "type": "address"
        }
      ],
      "stateMutability": "view",
      "type": "function",
      "constant": true
    },
    {
      "inputs": [
        {
          "internalType": "address",
          "name": "",
          "type": "address"
        },
        {
          "internalType": "uint256",
          "name": "",
          "type": "uint256"
        }
      ],
      "name": "ownerLands",
      "outputs": [
        {
          "internalType": "uint256",
          "name": "",
          "type": "uint256"
        }
      ],
      "stateMutability": "view",
      "type": "function",
      "constant": true
    },
    {
      "inputs": [
        {
          "internalType": "string",
          "name": "_plotNumber",
          "type": "string"
        },
        {
          "internalType": "string",
          "name": "_area",
          "type": "string"
        },
        {
          "internalType": "string",
          "name": "_district",
          "type": "string"
        },
        {
          "internalType": "string",
          "name": "_city",
          "type": "string"
        },
        {
          "internalType": "string",
          "name": "_state",
          "type": "string"
        },
        {
          "internalType": "uint256",
          "name": "_areaSqYd",
          "type": "uint256"
        }
      ],
      "name": "registerLand",
      "outputs": [],
      "stateMutability": "nonpayable",
      "type": "function"
    },
    {
      "inputs": [
        {
          "internalType": "uint256",
          "name": "_landId",
          "type": "uint256"
        }
      ],
      "name": "putLandForSale",
      "outputs": [],
      "stateMutability": "nonpayable",
      "type": "function"
    },
    {
      "inputs": [
        {
          "internalType": "uint256",
          "name": "_landId",
          "type": "uint256"
        }
      ],
      "name": "requestTransfer",
      "outputs": [],
      "stateMutability": "nonpayable",
      "type": "function"
    },
    {
      "inputs": [
        {
          "internalType": "uint256",
          "name": "_landId",
          "type": "uint256"
        }
      ],
      "name": "approveTransfer",
      "outputs": [],
      "stateMutability": "nonpayable",
      "type": "function"
    },
    {
      "inputs": [
        {
          "internalType": "uint256",
          "name": "_landId",
          "type": "uint256"
        }
      ],
      "name": "denyTransfer",
      "outputs": [],
      "stateMutability": "nonpayable",
      "type": "function"
    },
    {
      "inputs": [
        {
          "internalType": "uint256",
          "name": "_landId",
          "type": "uint256"
        }
      ],
      "name": "verifyLand",
      "outputs": [
        {
          "internalType": "string",
          "name": "plotNumber",
          "type": "string"
        },
        {
          "internalType": "string",
          "name": "area",
          "type": "string"
        },
        {
          "internalType": "string",
          "name": "district",
          "type": "string"
        },
        {
          "internalType": "string",
          "name": "city",
          "type": "string"
        },
        {
          "internalType": "string",
          "name": "state",
          "type": "string"
        },
        {
          "internalType": "uint256",
          "name": "areaSqYd",
          "type": "uint256"
        },
        {
          "internalType": "address",
          "name": "owner",
          "type": "address"
        }
      ],
      "stateMutability": "view",
      "type": "function",
      "constant": true
    },
    {
      "inputs": [
        {
          "internalType": "address",
          "name": "_owner",
          "type": "address"
        }
      ],
      "name": "getLandsByOwner",
      "outputs": [
        {
          "internalType": "uint256[]",
          "name": "",
          "type": "uint256[]"
        }
      ],
      "stateMutability": "view",
      "type": "function",
      "constant": true
    },
    {
      "inputs": [
        {
          "internalType": "address",
          "name": "_owner",
          "type": "address"
        }
      ],
      "name": "getPendingTransferRequests",
      "outputs": [
        {
          "internalType": "uint256[]",
          "name": "",
          "type": "uint256[]"
        }
      ],
      "stateMutability": "view",
      "type": "function",
      "constant": true
    },
    {
      "inputs": [],
      "name": "getAllLands",
      "outputs": [
        {
          "components": [
            {
              "internalType": "uint256",
              "name": "id",
              "type": "uint256"
            },
            {
              "internalType": "string",
              "name": "plotNumber",
              "type": "string"
            },
            {
              "internalType": "string",
              "name": "area",
              "type": "string"
            },
            {
              "internalType": "string",
              "name": "district",
              "type": "string"
            },
            {
              "internalType": "string",
              "name": "city",
              "type": "string"
            },
            {
              "internalType": "string",
              "name": "state",
              "type": "string"
            },
            {
              "internalType": "uint256",
              "name": "areaSqYd",
              "type": "uint256"
            },
            {
              "internalType": "address",
              "name": "owner",
              "type": "address"
            },
            {
              "internalType": "bool",
              "name": "isForSale",
              "type": "bool"
            },
            {
              "internalType": "address",
              "name": "transferRequest",
              "type": "address"
            }
          ],
          "internalType": "struct LandRegistry.Land[]",
          "name": "",
          "type": "tuple[]"
        }
      ],
      "stateMutability": "view",
      "type": "function",
      "constant": true
    },
    {
      "inputs": [
        {
          "internalType": "uint256",
          "name": "_landId",
          "type": "uint256"
        }
      ],
      "name": "getPastOwnershipDetails",
      "outputs": [
        {
          "components": [
            {
              "internalType": "address",
              "name": "owner",
              "type": "address"
            },
            {
              "internalType": "uint256",
              "name": "timestamp",
              "type": "uint256"
            }
          ],
          "internalType": "struct LandRegistry.OwnershipHistory[]",
          "name": "",
          "type": "tuple[]"
        }
      ],
      "stateMutability": "view",
      "type": "function",
      "constant": true
    }
  ],
  "bytecode": "0x608060405273dc2d7aaed0e3da74827a8b20ebe1a2c4cb6729c9600560006101000a81548173ffffffffffffffffffffffffffffffffffffffff021916908373ffffffffffffffffffffffffffffffffffffffff16021790555034801561006557600080fd5b50600080819055506135e38061007c6000396000f3fe608060405234801561001057600080fd5b50600436106101005760003560e01c8063cacca4a011610097578063e6ba285911610066578063e6ba2859146102c6578063f57ad989146102f7578063f851a44014610315578063f9c43bdf1461033357610100565b8063cacca4a014610223578063d0dea6e21461023f578063d7bce6581461026f578063e261f1e51461028d57610100565b80637f092fa9116100d35780637f092fa91461019d5780638a921a9a146101b9578063b2882724146101d5578063b7b6e5431461020557610100565b80630f6f51d41461010557806334d2b2aa14610121578063455b9d23146101515780634d3edb7614610181575b600080fd5b61011f600480360381019061011a919061268a565b610369565b005b61013b60048036038101906101369190612801565b610793565b60405161014891906128ec565b60405180910390f35b61016b60048036038101906101669190612801565b610a22565b60405161017891906128ec565b60405180910390f35b61019b6004803603810190610196919061290e565b610ab9565b005b6101b760048036038101906101b2919061290e565b610cd3565b005b6101d360048036038101906101ce919061290e565b610de3565b005b6101ef60048036038101906101ea919061290e565b611021565b6040516101fc9190612a28565b60405180910390f35b61020d611183565b60405161021a9190612ca5565b60405180910390f35b61023d6004803603810190610238919061290e565b611697565b005b61025960048036038101906102549190612cc7565b611b97565b6040516102669190612d16565b60405180910390f35b610277611bc8565b6040516102849190612d16565b60405180910390f35b6102a760048036038101906102a2919061290e565b611bce565b6040516102bd9a99989796959493929190612d99565b60405180910390f35b6102e060048036038101906102db9190612e58565b611f17565b6040516102ee929190612e98565b60405180910390f35b6102ff611f78565b60405161030c9190612ec1565b60405180910390f35b61031d611f90565b60405161032a9190612ec1565b60405180910390f35b61034d6004803603810190610348919061290e565b611fb6565b6040516103609796959493929190612edc565b60405180910390f35b600086858460405160200161038093929190612faa565b6040516020818303038152906040528051906020012090506004600082815260200190815260200160002060009054906101000a900460ff16156103f9576040517f08c379a00000000000000000000000000000000000000000000000000000000081526004016103f09061304d565b60405180910390fd5b60008081548092919061040b9061309c565b919050555060405180610140016040528060005481526020018881526020018781526020018681526020018581526020018481526020018381526020013373ffffffffffffffffffffffffffffffffffffffff168152602001600015158152602001600073ffffffffffffffffffffffffffffffffffffffff1681525060016000805481526020019081526020016000206000820151816000015560208201518160010190805190602001906104c29291906123d6565b5060408201518160020190805190602001906104df9291906123d6565b5060608201518160030190805190602001906104fc9291906123d6565b5060808201518160040190805190602001906105199291906123d6565b5060a08201518160050190805190602001906105369291906123d6565b5060c0820151816006015560e08201518160070160006101000a81548173ffffffffffffffffffffffffffffffffffffffff021916908373ffffffffffffffffffffffffffffffffffffffff1602179055506101008201518160070160146101000a81548160ff0219169083151502179055506101208201518160080160006101000a81548173ffffffffffffffffffffffffffffffffffffffff021916908373ffffffffffffffffffffffffffffffffffffffff16021790555090505060016004600083815260200190815260200160002060006101000a81548160ff021916908315150217905550600260003373ffffffffffffffffffffffffffffffffffffffff1673ffffffffffffffffffffffffffffffffffffffff1681526020019081526020016000206000549080600181540180825580915050600190039060005260206000200160009091909190915055600360008054815260200190815260200160002060405180604001604052803373ffffffffffffffffffffffffffffffffffffffff16815260200142815250908060018154018082558091505060019003906000526020600020906002020160009091909190915060008201518160000160006101000a81548173ffffffffffffffffffffffffffffffffffffffff021916908373ffffffffffffffffffffffffffffffffffffffff1602179055506020820151816001015550507f6d81efbcb09ef06d8116b0da49e16c5d09a2b4d93f9f899446ca1a08c5cd09e9600054338989898989896040516107829897969594939291906130e5565b60405180910390a150505050505050565b60606000600260008473ffffffffffffffffffffffffffffffffffffffff1673ffffffffffffffffffffffffffffffffffffffff16815260200190815260200160002080548060200260200160405190810160405280929190818152602001828054801561082057602002820191906000526020600020905b81548152602001906001019080831161080c575b505050505090506000805b82518110156108da57600073ffffffffffffffffffffffffffffffffffffffff166001600085848151811061086357610862613186565b5b6020026020010151815260200190815260200160002060080160009054906101000a900473ffffffffffffffffffffffffffffffffffffffff1673ffffffffffffffffffffffffffffffffffffffff16146108c75781806108c39061309c565b9250505b80806108d29061309c565b91505061082b565b5060008167ffffffffffffffff8111156108f7576108f6612529565b5b6040519080825280602002602001820160405280156109255781602001602082028036833780820191505090505b5090506000805b8451811015610a1557600073ffffffffffffffffffffffffffffffffffffffff166001600087848151811061096457610963613186565b5b6020026020010151815260200190815260200160002060080160009054906101000a900473ffffffffffffffffffffffffffffffffffffffff1673ffffffffffffffffffffffffffffffffffffffff1614610a02578481815181106109cc576109cb613186565b5b60200260200101518383815181106109e7576109e6613186565b5b60200260200101818152505081806109fe9061309c565b9250505b8080610a0d9061309c565b91505061092c565b5081945050505050919050565b6060600260008373ffffffffffffffffffffffffffffffffffffffff1673ffffffffffffffffffffffffffffffffffffffff168152602001908152602001600020805480602002602001604051908101604052809291908181526020018280548015610aad57602002820191906000526020600020905b815481526020019060010190808311610a99575b50505050509050919050565b803373ffffffffffffffffffffffffffffffffffffffff166001600083815260200190815260200160002060070160009054906101000a900473ffffffffffffffffffffffffffffffffffffffff1673ffffffffffffffffffffffffffffffffffffffff1614610b5e576040517f08c379a0000000000000000000000000000000000000000000000000000000008152600401610b5590613227565b60405180910390fd5b600073ffffffffffffffffffffffffffffffffffffffff166001600084815260200190815260200160002060080160009054906101000a900473ffffffffffffffffffffffffffffffffffffffff1673ffffffffffffffffffffffffffffffffffffffff161415610c04576040517f08c379a0000000000000000000000000000000000000000000000000000000008152600401610bfb90613293565b60405180910390fd5b60006001600084815260200190815260200160002060080160009054906101000a900473ffffffffffffffffffffffffffffffffffffffff16905060006001600085815260200190815260200160002060080160006101000a81548173ffffffffffffffffffffffffffffffffffffffff021916908373ffffffffffffffffffffffffffffffffffffffff1602179055507f041572a588520d2c09ac323b58f1d9b0c1f516a65d93e8d1a13433fddfefed058382604051610cc69291906132b3565b60405180910390a1505050565b803373ffffffffffffffffffffffffffffffffffffffff166001600083815260200190815260200160002060070160009054906101000a900473ffffffffffffffffffffffffffffffffffffffff1673ffffffffffffffffffffffffffffffffffffffff1614610d78576040517f08c379a0000000000000000000000000000000000000000000000000000000008152600401610d6f90613227565b60405180910390fd5b600180600084815260200190815260200160002060070160146101000a81548160ff0219169083151502179055507f51e6f3eba237bf90825acfdc7a247609979c40c5e56ccf677d9a76459b2588ea8233604051610dd79291906132b3565b60405180910390a15050565b6001600082815260200190815260200160002060070160149054906101000a900460ff16610e46576040517f08c379a0000000000000000000000000000000000000000000000000000000008152600401610e3d90613328565b60405180910390fd5b600073ffffffffffffffffffffffffffffffffffffffff166001600083815260200190815260200160002060080160009054906101000a900473ffffffffffffffffffffffffffffffffffffffff1673ffffffffffffffffffffffffffffffffffffffff1614610eeb576040517f08c379a0000000000000000000000000000000000000000000000000000000008152600401610ee290613394565b60405180910390fd5b6001600082815260200190815260200160002060070160009054906101000a900473ffffffffffffffffffffffffffffffffffffffff1673ffffffffffffffffffffffffffffffffffffffff163373ffffffffffffffffffffffffffffffffffffffff161415610f90576040517f08c379a0000000000000000000000000000000000000000000000000000000008152600401610f8790613400565b60405180910390fd5b336001600083815260200190815260200160002060080160006101000a81548173ffffffffffffffffffffffffffffffffffffffff021916908373ffffffffffffffffffffffffffffffffffffffff1602179055507f8b7f6b89f2cf0bff8d270c9d1595e3f21d27edbb9c103c1b45f9d882ec0e732481336040516110169291906132b3565b60405180910390a150565b6060600560009054906101000a900473ffffffffffffffffffffffffffffffffffffffff1673ffffffffffffffffffffffffffffffffffffffff163373ffffffffffffffffffffffffffffffffffffffff16146110b3576040517f08c379a00000000000000000000000000000000000000000000000000000000081526004016110aa90613492565b60405180910390fd5b60036000838152602001908152602001600020805480602002602001604051908101604052809291908181526020016000905b8282101561117857838290600052602060002090600202016040518060400160405290816000820160009054906101000a900473ffffffffffffffffffffffffffffffffffffffff1673ffffffffffffffffffffffffffffffffffffffff1673ffffffffffffffffffffffffffffffffffffffff168152602001600182015481525050815260200190600101906110e6565b505050509050919050565b6060600560009054906101000a900473ffffffffffffffffffffffffffffffffffffffff1673ffffffffffffffffffffffffffffffffffffffff163373ffffffffffffffffffffffffffffffffffffffff1614611215576040517f08c379a000000000000000000000000000000000000000000000000000000000815260040161120c90613492565b60405180910390fd5b6000805467ffffffffffffffff81111561123257611231612529565b5b60405190808252806020026020018201604052801561126b57816020015b61125861245c565b8152602001906001900390816112505790505b5090506000600190505b600054811161168f576001600082815260200190815260200160002060405180610140016040529081600082015481526020016001820180546112b7906134e1565b80601f01602080910402602001604051908101604052809291908181526020018280546112e3906134e1565b80156113305780601f1061130557610100808354040283529160200191611330565b820191906000526020600020905b81548152906001019060200180831161131357829003601f168201915b50505050508152602001600282018054611349906134e1565b80601f0160208091040260200160405190810160405280929190818152602001828054611375906134e1565b80156113c25780601f10611397576101008083540402835291602001916113c2565b820191906000526020600020905b8154815290600101906020018083116113a557829003601f168201915b505050505081526020016003820180546113db906134e1565b80601f0160208091040260200160405190810160405280929190818152602001828054611407906134e1565b80156114545780601f1061142957610100808354040283529160200191611454565b820191906000526020600020905b81548152906001019060200180831161143757829003601f168201915b5050505050815260200160048201805461146d906134e1565b80601f0160208091040260200160405190810160405280929190818152602001828054611499906134e1565b80156114e65780601f106114bb576101008083540402835291602001916114e6565b820191906000526020600020905b8154815290600101906020018083116114c957829003601f168201915b505050505081526020016005820180546114ff906134e1565b80601f016020809104026020016040519081016040528092919081815260200182805461152b906134e1565b80156115785780601f1061154d57610100808354040283529160200191611578565b820191906000526020600020905b81548152906001019060200180831161155b57829003601f168201915b50505050508152602001600682015481526020016007820160009054906101000a900473ffffffffffffffffffffffffffffffffffffffff1673ffffffffffffffffffffffffffffffffffffffff1673ffffffffffffffffffffffffffffffffffffffff1681526020016007820160149054906101000a900460ff161515151581526020016008820160009054906101000a900473ffffffffffffffffffffffffffffffffffffffff1673ffffffffffffffffffffffffffffffffffffffff1673ffffffffffffffffffffffffffffffffffffffff1681525050826001836116609190613513565b8151811061167157611670613186565b5b602002602001018190525080806116879061309c565b915050611275565b508091505090565b803373ffffffffffffffffffffffffffffffffffffffff166001600083815260200190815260200160002060070160009054906101000a900473ffffffffffffffffffffffffffffffffffffffff1673ffffffffffffffffffffffffffffffffffffffff161461173c576040517f08c379a000000000000000000000000000000000000000000000000000000000815260040161173390613227565b60405180910390fd5b600073ffffffffffffffffffffffffffffffffffffffff166001600084815260200190815260200160002060080160009054906101000a900473ffffffffffffffffffffffffffffffffffffffff1673ffffffffffffffffffffffffffffffffffffffff1614156117e2576040517f08c379a00000000000000000000000000000000000000000000000000000000081526004016117d990613293565b60405180910390fd5b60006001600084815260200190815260200160002060080160009054906101000a900473ffffffffffffffffffffffffffffffffffffffff1690506000600260003373ffffffffffffffffffffffffffffffffffffffff1673ffffffffffffffffffffffffffffffffffffffff168152602001908152602001600020905060005b8180549050811015611922578482828154811061188357611882613186565b5b9060005260206000200154141561190f5781600183805490506118a69190613513565b815481106118b7576118b6613186565b5b90600052602060002001548282815481106118d5576118d4613186565b5b9060005260206000200181905550818054806118f4576118f3613547565b5b60019003818190600052602060002001600090559055611922565b808061191a9061309c565b915050611863565b50816001600086815260200190815260200160002060070160006101000a81548173ffffffffffffffffffffffffffffffffffffffff021916908373ffffffffffffffffffffffffffffffffffffffff16021790555060006001600086815260200190815260200160002060070160146101000a81548160ff02191690831515021790555060006001600086815260200190815260200160002060080160006101000a81548173ffffffffffffffffffffffffffffffffffffffff021916908373ffffffffffffffffffffffffffffffffffffffff160217905550600260008373ffffffffffffffffffffffffffffffffffffffff1673ffffffffffffffffffffffffffffffffffffffff1681526020019081526020016000208490806001815401808255809150506001900390600052602060002001600090919091909150556003600085815260200190815260200160002060405180604001604052808473ffffffffffffffffffffffffffffffffffffffff16815260200142815250908060018154018082558091505060019003906000526020600020906002020160009091909190915060008201518160000160006101000a81548173ffffffffffffffffffffffffffffffffffffffff021916908373ffffffffffffffffffffffffffffffffffffffff1602179055506020820151816001015550507f1080b2f211753e5090f26ef7ffdc6bb3e66a125c7290200d10b502160bb1f566843384604051611b5093929190613576565b60405180910390a17fa4269914b1afdc8f7e4c3aa6794f0de6e37f00884fb97ea9288a1d68ba7de67b8483604051611b899291906132b3565b60405180910390a150505050565b60026020528160005260406000208181548110611bb357600080fd5b90600052602060002001600091509150505481565b60005481565b6001602052806000526040600020600091509050806000015490806001018054611bf7906134e1565b80601f0160208091040260200160405190810160405280929190818152602001828054611c23906134e1565b8015611c705780601f10611c4557610100808354040283529160200191611c70565b820191906000526020600020905b815481529060010190602001808311611c5357829003601f168201915b505050505090806002018054611c85906134e1565b80601f0160208091040260200160405190810160405280929190818152602001828054611cb1906134e1565b8015611cfe5780601f10611cd357610100808354040283529160200191611cfe565b820191906000526020600020905b815481529060010190602001808311611ce157829003601f168201915b505050505090806003018054611d13906134e1565b80601f0160208091040260200160405190810160405280929190818152602001828054611d3f906134e1565b8015611d8c5780601f10611d6157610100808354040283529160200191611d8c565b820191906000526020600020905b815481529060010190602001808311611d6f57829003601f168201915b505050505090806004018054611da1906134e1565b80601f0160208091040260200160405190810160405280929190818152602001828054611dcd906134e1565b8015611e1a5780601f10611def57610100808354040283529160200191611e1a565b820191906000526020600020905b815481529060010190602001808311611dfd57829003601f168201915b505050505090806005018054611e2f906134e1565b80601f0160208091040260200160405190810160405280929190818152602001828054611e5b906134e1565b8015611ea85780601f10611e7d57610100808354040283529160200191611ea8565b820191906000526020600020905b815481529060010190602001808311611e8b57829003601f168201915b5050505050908060060154908060070160009054906101000a900473ffffffffffffffffffffffffffffffffffffffff16908060070160149054906101000a900460ff16908060080160009054906101000a900473ffffffffffffffffffffffffffffffffffffffff1690508a565b60036020528160005260406000208181548110611f3357600080fd5b9060005260206000209060020201600091509150508060000160009054906101000a900473ffffffffffffffffffffffffffffffffffffffff16908060010154905082565b73dc2d7aaed0e3da74827a8b20ebe1a2c4cb6729c981565b600560009054906101000a900473ffffffffffffffffffffffffffffffffffffffff1681565b60608060608060606000806000600160008a81526020019081526020016000206040518061014001604052908160008201548152602001600182018054611ffc906134e1565b80601f0160208091040260200160405190810160405280929190818152602001828054612028906134e1565b80156120755780601f1061204a57610100808354040283529160200191612075565b820191906000526020600020905b81548152906001019060200180831161205857829003601f168201915b5050505050815260200160028201805461208e906134e1565b80601f01602080910402602001604051908101604052809291908181526020018280546120ba906134e1565b80156121075780601f106120dc57610100808354040283529160200191612107565b820191906000526020600020905b8154815290600101906020018083116120ea57829003601f168201915b50505050508152602001600382018054612120906134e1565b80601f016020809104026020016040519081016040528092919081815260200182805461214c906134e1565b80156121995780601f1061216e57610100808354040283529160200191612199565b820191906000526020600020905b81548152906001019060200180831161217c57829003601f168201915b505050505081526020016004820180546121b2906134e1565b80601f01602080910402602001604051908101604052809291908181526020018280546121de906134e1565b801561222b5780601f106122005761010080835404028352916020019161222b565b820191906000526020600020905b81548152906001019060200180831161220e57829003601f168201915b50505050508152602001600582018054612244906134e1565b80601f0160208091040260200160405190810160405280929190818152602001828054612270906134e1565b80156122bd5780601f10612292576101008083540402835291602001916122bd565b820191906000526020600020905b8154815290600101906020018083116122a057829003601f168201915b50505050508152602001600682015481526020016007820160009054906101000a900473ffffffffffffffffffffffffffffffffffffffff1673ffffffffffffffffffffffffffffffffffffffff1673ffffffffffffffffffffffffffffffffffffffff1681526020016007820160149054906101000a900460ff161515151581526020016008820160009054906101000a900473ffffffffffffffffffffffffffffffffffffffff1673ffffffffffffffffffffffffffffffffffffffff1673ffffffffffffffffffffffffffffffffffffffff1681525050905080602001518160400151826060015183608001518460a001518560c001518660e00151975097509750975097509750975050919395979092949650565b8280546123e2906134e1565b90600052602060002090601f016020900481019282612404576000855561244b565b82601f1061241d57805160ff191683800117855561244b565b8280016001018555821561244b579182015b8281111561244a57825182559160200191906001019061242f565b5b50905061245891906124dd565b5090565b60405180610140016040528060008152602001606081526020016060815260200160608152602001606081526020016060815260200160008152602001600073ffffffffffffffffffffffffffffffffffffffff168152602001600015158152602001600073ffffffffffffffffffffffffffffffffffffffff1681525090565b5b808211156124f65760008160009055506001016124de565b5090565b6000604051905090565b600080fd5b600080fd5b600080fd5b600080fd5b6000601f19601f8301169050919050565b7f4e487b7100000000000000000000000000000000000000000000000000000000600052604160045260246000fd5b61256182612518565b810181811067ffffffffffffffff821117156125805761257f612529565b5b80604052505050565b60006125936124fa565b905061259f8282612558565b919050565b600067ffffffffffffffff8211156125bf576125be612529565b5b6125c882612518565b9050602081019050919050565b82818337600083830152505050565b60006125f76125f2846125a4565b612589565b90508281526020810184848401111561261357612612612513565b5b61261e8482856125d5565b509392505050565b600082601f83011261263b5761263a61250e565b5b813561264b8482602086016125e4565b91505092915050565b6000819050919050565b61266781612654565b811461267257600080fd5b50565b6000813590506126848161265e565b92915050565b60008060008060008060c087890312156126a7576126a6612504565b5b600087013567ffffffffffffffff8111156126c5576126c4612509565b5b6126d189828a01612626565b965050602087013567ffffffffffffffff8111156126f2576126f1612509565b5b6126fe89828a01612626565b955050604087013567ffffffffffffffff81111561271f5761271e612509565b5b61272b89828a01612626565b945050606087013567ffffffffffffffff81111561274c5761274b612509565b5b61275889828a01612626565b935050608087013567ffffffffffffffff81111561277957612778612509565b5b61278589828a01612626565b92505060a061279689828a01612675565b9150509295509295509295565b600073ffffffffffffffffffffffffffffffffffffffff82169050919050565b60006127ce826127a3565b9050919050565b6127de816127c3565b81146127e957600080fd5b50565b6000813590506127fb816127d5565b92915050565b60006020828403121561281757612816612504565b5b6000612825848285016127ec565b91505092915050565b600081519050919050565b600082825260208201905092915050565b6000819050602082019050919050565b61286381612654565b82525050565b6000612875838361285a565b60208301905092915050565b6000602082019050919050565b60006128998261282e565b6128a38185612839565b93506128ae8361284a565b8060005b838110156128df5781516128c68882612869565b97506128d183612881565b9250506001810190506128b2565b5085935050505092915050565b60006020820190508181036000830152612906818461288e565b905092915050565b60006020828403121561292457612923612504565b5b600061293284828501612675565b91505092915050565b600081519050919050565b600082825260208201905092915050565b6000819050602082019050919050565b612970816127c3565b82525050565b60408201600082015161298c6000850182612967565b50602082015161299f602085018261285a565b50505050565b60006129b18383612976565b60408301905092915050565b6000602082019050919050565b60006129d58261293b565b6129df8185612946565b93506129ea83612957565b8060005b83811015612a1b578151612a0288826129a5565b9750612a0d836129bd565b9250506001810190506129ee565b5085935050505092915050565b60006020820190508181036000830152612a4281846129ca565b905092915050565b600081519050919050565b600082825260208201905092915050565b6000819050602082019050919050565b600081519050919050565b600082825260208201905092915050565b60005b83811015612ab0578082015181840152602081019050612a95565b83811115612abf576000848401525b50505050565b6000612ad082612a76565b612ada8185612a81565b9350612aea818560208601612a92565b612af381612518565b840191505092915050565b60008115159050919050565b612b1381612afe565b82525050565b600061014083016000830151612b32600086018261285a565b5060208301518482036020860152612b4a8282612ac5565b91505060408301518482036040860152612b648282612ac5565b91505060608301518482036060860152612b7e8282612ac5565b91505060808301518482036080860152612b988282612ac5565b91505060a083015184820360a0860152612bb28282612ac5565b91505060c0830151612bc760c086018261285a565b5060e0830151612bda60e0860182612967565b50610100830151612bef610100860182612b0a565b50610120830151612c04610120860182612967565b508091505092915050565b6000612c1b8383612b19565b905092915050565b6000602082019050919050565b6000612c3b82612a4a565b612c458185612a55565b935083602082028501612c5785612a66565b8060005b85811015612c935784840389528151612c748582612c0f565b9450612c7f83612c23565b925060208a01995050600181019050612c5b565b50829750879550505050505092915050565b60006020820190508181036000830152612cbf8184612c30565b905092915050565b60008060408385031215612cde57612cdd612504565b5b6000612cec858286016127ec565b9250506020612cfd85828601612675565b9150509250929050565b612d1081612654565b82525050565b6000602082019050612d2b6000830184612d07565b92915050565b600082825260208201905092915050565b6000612d4d82612a76565b612d578185612d31565b9350612d67818560208601612a92565b612d7081612518565b840191505092915050565b612d84816127c3565b82525050565b612d9381612afe565b82525050565b600061014082019050612daf600083018d612d07565b8181036020830152612dc1818c612d42565b90508181036040830152612dd5818b612d42565b90508181036060830152612de9818a612d42565b90508181036080830152612dfd8189612d42565b905081810360a0830152612e118188612d42565b9050612e2060c0830187612d07565b612e2d60e0830186612d7b565b612e3b610100830185612d8a565b612e49610120830184612d7b565b9b9a5050505050505050505050565b60008060408385031215612e6f57612e6e612504565b5b6000612e7d85828601612675565b9250506020612e8e85828601612675565b9150509250929050565b6000604082019050612ead6000830185612d7b565b612eba6020830184612d07565b9392505050565b6000602082019050612ed66000830184612d7b565b92915050565b600060e0820190508181036000830152612ef6818a612d42565b90508181036020830152612f0a8189612d42565b90508181036040830152612f1e8188612d42565b90508181036060830152612f328187612d42565b90508181036080830152612f468186612d42565b9050612f5560a0830185612d07565b612f6260c0830184612d7b565b98975050505050505050565b600081905092915050565b6000612f8482612a76565b612f8e8185612f6e565b9350612f9e818560208601612a92565b80840191505092915050565b6000612fb68286612f79565b9150612fc28285612f79565b9150612fce8284612f79565b9150819050949350505050565b7f4572726f723a204c616e6420776974682074686573652064657461696c73206960008201527f7320616c72656164792072656769737465726564000000000000000000000000602082015250565b6000613037603483612d31565b915061304282612fdb565b604082019050919050565b600060208201905081810360008301526130668161302a565b9050919050565b7f4e487b7100000000000000000000000000000000000000000000000000000000600052601160045260246000fd5b60006130a782612654565b91507fffffffffffffffffffffffffffffffffffffffffffffffffffffffffffffffff8214156130da576130d961306d565b5b600182019050919050565b6000610100820190506130fb600083018b612d07565b613108602083018a612d7b565b818103604083015261311a8189612d42565b9050818103606083015261312e8188612d42565b905081810360808301526131428187612d42565b905081810360a08301526131568186612d42565b905081810360c083015261316a8185612d42565b905061317960e0830184612d07565b9998505050505050505050565b7f4e487b7100000000000000000000000000000000000000000000000000000000600052603260045260246000fd5b7f596f7520617265206e6f7420746865206f776e6572206f662074686973206c6160008201527f6e64000000000000000000000000000000000000000000000000000000000000602082015250565b6000613211602283612d31565b915061321c826131b5565b604082019050919050565b6000602082019050818103600083015261324081613204565b9050919050565b7f4e6f207472616e7366657220726571756573742070656e64696e670000000000600082015250565b600061327d601b83612d31565b915061328882613247565b602082019050919050565b600060208201905081810360008301526132ac81613270565b9050919050565b60006040820190506132c86000830185612d07565b6132d56020830184612d7b565b9392505050565b7f4c616e64206973206e6f7420666f722073616c65000000000000000000000000600082015250565b6000613312601483612d31565b915061331d826132dc565b602082019050919050565b6000602082019050818103600083015261334181613305565b9050919050565b7f5472616e7366657220616c726561647920726571756573746564000000000000600082015250565b600061337e601a83612d31565b915061338982613348565b602082019050919050565b600060208201905081810360008301526133ad81613371565b9050919050565b7f4f776e65722063616e6e6f742072657175657374207472616e73666572000000600082015250565b60006133ea601d83612d31565b91506133f5826133b4565b602082019050919050565b60006020820190508181036000830152613419816133dd565b9050919050565b7f4f6e6c792061646d696e2063616e20706572666f726d2074686973206163746960008201527f6f6e000000000000000000000000000000000000000000000000000000000000602082015250565b600061347c602283612d31565b915061348782613420565b604082019050919050565b600060208201905081810360008301526134ab8161346f565b9050919050565b7f4e487b7100000000000000000000000000000000000000000000000000000000600052602260045260246000fd5b600060028204905060018216806134f957607f821691505b6020821081141561350d5761350c6134b2565b5b50919050565b600061351e82612654565b915061352983612654565b92508282101561353c5761353b61306d565b5b828203905092915050565b7f4e487b7100000000000000000000000000000000000000000000000000000000600052603160045260246000fd5b600060608201905061358b6000830186612d07565b6135986020830185612d7b565b6135a56040830184612d7b565b94935050505056fea2646970667358221220b1caf8dc4ec4962c7c3b020256af21cd6c0220c5a02ca2eb4eb5f548c4dce80864736f6c63430008090033",
  "immutableReferences": {},
  "source": "\n// SPDX-License-Identifier: MIT\npragma solidity >=0.4.22 <0.9.0;\n\n/**\n * @title LandRegistry\n * @dev A smart contract for registering and managing land ownership on the blockchain.\n */\ncontract LandRegistry {\n    /**\n     * @notice Represents the details of a registered land plot.\n     * @param id Unique identifier for the land.\n     * @param plotNumber Official plot number or identifier.\n     * @param area General area or region where the land is located.\n     * @param district Administrative district of the land.\n     * @param city City or town where the land is located.\n     * @param state Province or state where the land is located.\n     * @param areaSqYd Area of the land in square yards.\n     * @param owner The current owner's Ethereum address.\n     * @param isForSale Indicates if the land is currently listed for sale.\n     * @param transferRequest The Ethereum address that has requested a transfer for this land. Address(0) if no request is pending.\n     */\n    struct Land {\n        uint256 id;\n        string plotNumber;\n        string area;\n        string district;\n        string city;\n        string state;\n        uint256 areaSqYd;\n        address owner;\n        bool isForSale;\n        address transferRequest;\n    }\n\n    /**\n     * @notice Represents a record in the ownership history of a land plot.\n     * @param owner The Ethereum address of a past owner.\n     * @param timestamp The Unix timestamp when the ownership was recorded.\n     */\n    struct OwnershipHistory {\n        address owner;\n        uint256 timestamp;\n    }\n\n    uint256 public landCount; // Tracks the total number of registered land plots.\n    mapping(uint256 => Land) public lands; // Maps a land ID to its Land struct.\n    mapping(address => uint256[]) public ownerLands; // Maps an owner's address to an array of their land IDs.\n    mapping(uint256 => OwnershipHistory[]) public landOwnershipHistory; // Maps a land ID to an array of its ownership history records.\n\n    // Mapping to check if a land with specific details has already been registered.\n    mapping(bytes32 => bool) private landExists;\n\n    // Define the admin address as a constant for immutability.\n    address public constant ADMIN_ADDRESS =\n      0xdC2D7AaED0e3DA74827A8b20eBe1A2c4CB6729C9;\n    address public admin = ADMIN_ADDRESS; // Initializes the admin with the constant address upon contract deployment.\n\n    /**\n     * @dev Emitted when a new land plot is successfully registered.\n     * @param id The unique ID of the registered land.\n     * @param owner The Ethereum address of the initial owner.\n     * @param plotNumber The official plot number.\n     * @param area The general area.\n     * @param district The administrative district.\n     * @param city The city or town.\n     * @param state The province or state.\n     * @param areaSqYd The area in square yards.\n     */\n    event LandRegistered(\n        uint256 id,\n        address owner,\n        string plotNumber,\n        string area,\n        string district,\n        string city,\n        string state,\n        uint256 areaSqYd\n    );\n\n    /**\n     * @dev Emitted when a land plot is put up for sale by its owner.\n     * @param id The ID of the land listed for sale.\n     * @param owner The Ethereum address of the owner listing the land.\n     */\n    event LandForSale(uint256 id, address owner);\n\n    /**\n     * @dev Emitted when a user requests a transfer of a land plot that is for sale.\n     * @param id The ID of the land for which a transfer is requested.\n     * @param requester The Ethereum address of the user requesting the transfer.\n     */\n    event TransferRequested(uint256 id, address requester);\n\n    /**\n     * @dev Emitted when the ownership of a land plot is successfully transferred.\n     * @param id The ID of the transferred land.\n     * @param from The Ethereum address of the previous owner.\n     * @param to The Ethereum address of the new owner.\n     */\n    event LandTransferred(uint256 id, address from, address to);\n\n    /**\n     * @dev Emitted when the owner approves a pending transfer request.\n     * @param id The ID of the land whose transfer was approved.\n     * @param newOwner The Ethereum address of the new owner after approval.\n     */\n    event TransferApproved(uint256 id, address newOwner);\n\n    /**\n     * @dev Emitted when the owner denies a pending transfer request.\n     * @param id The ID of the land whose transfer was denied.\n     * @param requester The Ethereum address of the user whose transfer request was denied.\n     */\n    event TransferDenied(uint256 id, address requester);\n\n    /**\n     * @dev Constructor to initialize the contract.\n     * Sets the initial land count to zero.\n     * The admin address is initialized directly with the constant.\n     */\n    constructor() {\n        landCount = 0;\n    }\n\n    /**\n     * @dev Modifier to restrict access to functions to the owner of a specific land plot.\n     * @param _landId The ID of the land to check ownership against.\n     */\n    modifier onlyOwner(uint256 _landId) {\n        require(\n            lands[_landId].owner == msg.sender,\n            \"You are not the owner of this land\"\n        );\n        _; // Execute the function if the condition is met.\n    }\n\n    /**\n     * @dev Modifier to restrict access to functions to the contract administrator.\n     */\n    modifier onlyAdmin() {\n        require(msg.sender == admin, \"Only admin can perform this action\");\n        _; // Execute the function if the condition is met.\n    }\n\n    /**\n     * @dev Registers a new land plot in the registry.\n     * Only users can call this function to register land they own.\n     * @param _plotNumber The official plot number of the land.\n     * @param _area The general area or region.\n     * @param _district The administrative district.\n     * @param _city The city or town.\n     * @param _state The province or state.\n     * @param _areaSqYd The area of the land in square yards.\n     */\n    function registerLand(\n        string memory _plotNumber,\n        string memory _area,\n        string memory _district,\n        string memory _city,\n        string memory _state,\n        uint256 _areaSqYd\n    ) public {\n        // Create a unique hash based on key land details to prevent duplicate entries.\n        bytes32 landHash = keccak256(\n            abi.encodePacked(_plotNumber, _district, _state)\n        );\n\n        // Ensure that a land with the same key details has not been registered before.\n        require(\n            !landExists[landHash],\n            \"Error: Land with these details is already registered\"\n        );\n\n        landCount++; // Increment the total count of registered lands.\n        // Create a new Land struct and store it in the lands mapping.\n        lands[landCount] = Land(\n            landCount,\n            _plotNumber,\n            _area, \n            _district,\n            _city,\n            _state,\n            _areaSqYd,\n            msg.sender, // The sender of the transaction becomes the initial owner.\n            false, // Initially, the land is not for sale.\n            address(0) // No transfer request is pending initially.\n        );\n\n        // Mark this land as existing using its unique hash.\n        landExists[landHash] = true;\n\n        // Add the new land ID to the owner's list of owned lands.\n        ownerLands[msg.sender].push(landCount);\n        // Record the initial ownership in the land's ownership history.\n        landOwnershipHistory[landCount].push(\n            OwnershipHistory(msg.sender, block.timestamp)\n        );\n        // Emit an event to log the successful land registration.\n        emit LandRegistered(\n            landCount,\n            msg.sender,\n            _plotNumber,\n            _area,\n            _district,\n            _city,\n            _state,\n            _areaSqYd\n        );\n    }\n\n    /**\n     * @dev Allows the owner of a land plot to mark it as being for sale.\n     * Only the owner of the land can call this function.\n     * @param _landId The ID of the land to put up for sale.\n     */\n    function putLandForSale(uint256 _landId) public onlyOwner(_landId) {\n        lands[_landId].isForSale = true;\n        emit LandForSale(_landId, msg.sender);\n    }\n\n    /**\n     * @dev Allows a user to request a transfer of a land plot that is for sale.\n     * The land must be marked as for sale, and no other transfer request should be pending.\n     * The requester cannot be the current owner.\n     * @param _landId The ID of the land for which a transfer is requested.\n     */\n    function requestTransfer(uint256 _landId) public {\n        require(lands[_landId].isForSale, \"Land is not for sale\");\n        require(\n            lands[_landId].transferRequest == address(0),\n            \"Transfer already requested\"\n        );\n        require(\n            msg.sender != lands[_landId].owner,\n            \"Owner cannot request transfer\"\n        );\n        lands[_landId].transferRequest = msg.sender;\n        emit TransferRequested(_landId, msg.sender);\n    }\n\n    /**\n     * @dev Allows the owner of a land plot to approve a pending transfer request.\n     * Only the owner of the land can call this function, and a transfer request must be pending.\n     * @param _landId The ID of the land for which to approve the transfer.\n     */\n    function approveTransfer(uint256 _landId) public onlyOwner(_landId) {\n        require(\n            lands[_landId].transferRequest != address(0),\n            \"No transfer request pending\"\n        );\n        address newOwner = lands[_landId].transferRequest;\n\n        // Remove the land ID from the previous owner's list.\n        uint256[] storage ownerLandList = ownerLands[msg.sender];\n        for (uint256 i = 0; i < ownerLandList.length; i++) {\n            if (ownerLandList[i] == _landId) {\n                ownerLandList[i] = ownerLandList[ownerLandList.length - 1];\n                ownerLandList.pop();\n                break;\n            }\n        }\n\n        // Update the land's owner, set isForSale to false, and clear the transfer request.\n        lands[_landId].owner = newOwner;\n        lands[_landId].isForSale = false;\n        lands[_landId].transferRequest = address(0);\n        // Add the land ID to the new owner's list.\n        ownerLands[newOwner].push(_landId);\n        // Record the transfer in the land's ownership history.\n        landOwnershipHistory[_landId].push(\n            OwnershipHistory(newOwner, block.timestamp)\n        );\n\n        emit LandTransferred(_landId, msg.sender, newOwner);\n        emit TransferApproved(_landId, newOwner);\n    }\n\n    /**\n     * @dev Allows the owner of a land plot to deny a pending transfer request.\n     * Only the owner of the land can call this function, and a transfer request must be pending.\n     * @param _landId The ID of the land for which to deny the transfer.\n     */\n    function denyTransfer(uint256 _landId) public onlyOwner(_landId) {\n        require(\n            lands[_landId].transferRequest != address(0),\n            \"No transfer request pending\"\n        );\n        address requester = lands[_landId].transferRequest;\n        lands[_landId].transferRequest = address(0);\n        emit TransferDenied(_landId, requester);\n    }\n\n    // /**\n    //  * @dev Allows anyone to view the details of a registered land plot.\n    //  * @param _landId The ID of the land to retrieve details for.\n    //  * @return plotNumber, area, district, city, state, areaSqYd, owner The details of the land.\n    //  */\n\n    function verifyLand(\n        uint256 _landId\n    )\n        public\n        view\n        returns (\n            string memory plotNumber,\n            string memory area,\n            string memory district,\n            string memory city,\n            string memory state,\n            uint256 areaSqYd,\n            address owner\n        )\n    {\n        Land memory land = lands[_landId];\n        return (\n            land.plotNumber,\n            land.area,\n            land.district,\n            land.city,\n            land.state,\n            land.areaSqYd,\n            land.owner\n        );\n    }\n\n    /**\n     * @dev Returns an array of land IDs owned by a specific address.\n     * @param _owner The Ethereum address of the owner.\n     * @return An array of uint256 representing the IDs of the lands owned by the address.\n     */\n    function getLandsByOwner(\n        address _owner\n    ) public view returns (uint256[] memory) {\n        return ownerLands[_owner];\n    }\n\n    /**\n     * @dev Returns an array of land IDs owned by a specific address that have pending transfer requests.\n     * @param _owner The Ethereum address of the owner.\n     * @return An array of uint256 representing the IDs of the lands with pending transfer requests.\n     */\n    function getPendingTransferRequests(\n        address _owner\n    ) public view returns (uint256[] memory) {\n        uint256[] memory ownedLands = ownerLands[_owner];\n        uint256 pendingCount = 0;\n\n        // Count the number of lands with pending transfer requests.\n        for (uint256 i = 0; i < ownedLands.length; i++) {\n            if (lands[ownedLands[i]].transferRequest != address(0)) {\n                pendingCount++;\n            }\n        }\n\n        // Create a new array to store the IDs of the lands with pending requests.\n        uint256[] memory pendingRequests = new uint256[](pendingCount);\n        uint256 index = 0;\n        // Populate the array with the IDs of the lands with pending requests.\n        for (uint256 i = 0; i < ownedLands.length; i++) {\n            if (lands[ownedLands[i]].transferRequest != address(0)) {\n                pendingRequests[index] = ownedLands[i];\n                index++;\n            }\n        }\n\n        return pendingRequests;\n    }\n\n    /**\n     * @dev Allows the admin to retrieve details of all registered land plots.\n     * @return An array of Land structs containing details of all registered lands.\n     */\n    function getAllLands() public view onlyAdmin returns (Land[] memory) {\n        Land[] memory allLands = new Land[](landCount);\n        for (uint256 i = 1; i <= landCount; i++) {\n            allLands[i - 1] = lands[i];\n        }\n        return allLands;\n    }\n\n    /**\n     * @dev Allows the admin to retrieve the ownership history of a specific land plot.\n     * @param _landId The ID of the land to retrieve the ownership history for.\n     * @return An array of OwnershipHistory structs representing the past owners and timestamps.\n     */\n    function getPastOwnershipDetails(\n        uint256 _landId\n    ) public view onlyAdmin returns (OwnershipHistory[] memory) {\n        return landOwnershipHistory[_landId];\n    }\n}\n",
  "sourcePath": "C:\\Users\\Swey\\Downloads\\Compressed\\Final-Year-Project-main\\landregistration\\contracts\\LandRegistry.sol",
  "compiler": {
    "name": "solc",
    "version": "0.8.9+commit.e5eed63a.Emscripten.clang"
  },
  "schemaVersion": "3.4.16",
  "updatedAt": "2025-05-18T23:29:45.670Z",
  "networkType": "ethereum",
  "devdoc": {
    "details": "A smart contract for registering and managing land ownership on the blockchain.",
    "events": {
      "LandForSale(uint256,address)": {
        "details": "Emitted when a land plot is put up for sale by its owner.",
        "params": {
          "id": "The ID of the land listed for sale.",
          "owner": "The Ethereum address of the owner listing the land."
        }
      },
      "LandRegistered(uint256,address,string,string,string,string,string,uint256)": {
        "details": "Emitted when a new land plot is successfully registered.",
        "params": {
          "area": "The general area.",
          "areaSqYd": "The area in square yards.",
          "city": "The city or town.",
          "district": "The administrative district.",
          "id": "The unique ID of the registered land.",
          "owner": "The Ethereum address of the initial owner.",
          "plotNumber": "The official plot number.",
          "state": "The province or state."
        }
      },
      "LandTransferred(uint256,address,address)": {
        "details": "Emitted when the ownership of a land plot is successfully transferred.",
        "params": {
          "from": "The Ethereum address of the previous owner.",
          "id": "The ID of the transferred land.",
          "to": "The Ethereum address of the new owner."
        }
      },
      "TransferApproved(uint256,address)": {
        "details": "Emitted when the owner approves a pending transfer request.",
        "params": {
          "id": "The ID of the land whose transfer was approved.",
          "newOwner": "The Ethereum address of the new owner after approval."
        }
      },
      "TransferDenied(uint256,address)": {
        "details": "Emitted when the owner denies a pending transfer request.",
        "params": {
          "id": "The ID of the land whose transfer was denied.",
          "requester": "The Ethereum address of the user whose transfer request was denied."
        }
      },
      "TransferRequested(uint256,address)": {
        "details": "Emitted when a user requests a transfer of a land plot that is for sale.",
        "params": {
          "id": "The ID of the land for which a transfer is requested.",
          "requester": "The Ethereum address of the user requesting the transfer."
        }
      }
    },
    "kind": "dev",
    "methods": {
      "approveTransfer(uint256)": {
        "details": "Allows the owner of a land plot to approve a pending transfer request. Only the owner of the land can call this function, and a transfer request must be pending.",
        "params": {
          "_landId": "The ID of the land for which to approve the transfer."
        }
      },
      "constructor": {
        "details": "Constructor to initialize the contract. Sets the initial land count to zero. The admin address is initialized directly with the constant."
      },
      "denyTransfer(uint256)": {
        "details": "Allows the owner of a land plot to deny a pending transfer request. Only the owner of the land can call this function, and a transfer request must be pending.",
        "params": {
          "_landId": "The ID of the land for which to deny the transfer."
        }
      },
      "getAllLands()": {
        "details": "Allows the admin to retrieve details of all registered land plots.",
        "returns": {
          "_0": "An array of Land structs containing details of all registered lands."
        }
      },
      "getLandsByOwner(address)": {
        "details": "Returns an array of land IDs owned by a specific address.",
        "params": {
          "_owner": "The Ethereum address of the owner."
        },
        "returns": {
          "_0": "An array of uint256 representing the IDs of the lands owned by the address."
        }
      },
      "getPastOwnershipDetails(uint256)": {
        "details": "Allows the admin to retrieve the ownership history of a specific land plot.",
        "params": {
          "_landId": "The ID of the land to retrieve the ownership history for."
        },
        "returns": {
          "_0": "An array of OwnershipHistory structs representing the past owners and timestamps."
        }
      },
      "getPendingTransferRequests(address)": {
        "details": "Returns an array of land IDs owned by a specific address that have pending transfer requests.",
        "params": {
          "_owner": "The Ethereum address of the owner."
        },
        "returns": {
          "_0": "An array of uint256 representing the IDs of the lands with pending transfer requests."
        }
      },
      "putLandForSale(uint256)": {
        "details": "Allows the owner of a land plot to mark it as being for sale. Only the owner of the land can call this function.",
        "params": {
          "_landId": "The ID of the land to put up for sale."
        }
      },
      "registerLand(string,string,string,string,string,uint256)": {
        "details": "Registers a new land plot in the registry. Only users can call this function to register land they own.",
        "params": {
          "_area": "The general area or region.",
          "_areaSqYd": "The area of the land in square yards.",
          "_city": "The city or town.",
          "_district": "The administrative district.",
          "_plotNumber": "The official plot number of the land.",
          "_state": "The province or state."
        }
      },
      "requestTransfer(uint256)": {
        "details": "Allows a user to request a transfer of a land plot that is for sale. The land must be marked as for sale, and no other transfer request should be pending. The requester cannot be the current owner.",
        "params": {
          "_landId": "The ID of the land for which a transfer is requested."
        }
      }
    },
    "title": "LandRegistry",
    "version": 1
  },
  "userdoc": {
    "kind": "user",
    "methods": {},
    "version": 1
  },
  "db": {
    "callBytecode": {
      "id": "0x9e6c102be3a07b73e7ca3428b39805fc1b0f85d767de9850ea9a902b289fd71d"
    },
    "createBytecode": {
      "id": "0x159d4818963f8ab8f5c2ecb29c62d89fa47be0b4077230ed817f1b329ac9e118"
    },
    "contract": {
      "id": "0xe6e8a0710d80c2f7891dc81ffa39f426c80010c7fc80729e86183e878537fe97"
    }
  }
}